{
  "_format": "hh-sol-artifact-1",
  "contractName": "NftTicketing",
  "sourceName": "contracts/NftTicketing.sol",
  "abi": [
    {
      "inputs": [
        {
          "internalType": "uint256",
          "name": "_eventFee",
          "type": "uint256"
        }
      ],
      "stateMutability": "nonpayable",
      "type": "constructor"
    },
    {
      "anonymous": false,
      "inputs": [
        {
          "indexed": true,
          "internalType": "address",
          "name": "owner",
          "type": "address"
        },
        {
          "indexed": true,
          "internalType": "address",
          "name": "approved",
          "type": "address"
        },
        {
          "indexed": true,
          "internalType": "uint256",
          "name": "tokenId",
          "type": "uint256"
        }
      ],
      "name": "Approval",
      "type": "event"
    },
    {
      "anonymous": false,
      "inputs": [
        {
          "indexed": true,
          "internalType": "address",
          "name": "owner",
          "type": "address"
        },
        {
          "indexed": true,
          "internalType": "address",
          "name": "operator",
          "type": "address"
        },
        {
          "indexed": false,
          "internalType": "bool",
          "name": "approved",
          "type": "bool"
        }
      ],
      "name": "ApprovalForAll",
      "type": "event"
    },
    {
      "anonymous": false,
      "inputs": [
        {
          "indexed": false,
          "internalType": "uint256",
          "name": "_fromTokenId",
          "type": "uint256"
        },
        {
          "indexed": false,
          "internalType": "uint256",
          "name": "_toTokenId",
          "type": "uint256"
        }
      ],
      "name": "BatchMetadataUpdate",
      "type": "event"
    },
    {
      "anonymous": false,
      "inputs": [
        {
          "indexed": true,
          "internalType": "address",
          "name": "_eventOwner",
          "type": "address"
        },
        {
          "indexed": false,
          "internalType": "uint256",
          "name": "_eventId",
          "type": "uint256"
        },
        {
          "indexed": false,
          "internalType": "uint256",
          "name": "_dateCreated",
          "type": "uint256"
        },
        {
          "indexed": false,
          "internalType": "uint256",
          "name": "_fee",
          "type": "uint256"
        }
      ],
      "name": "CreateEventNotification",
      "type": "event"
    },
    {
      "anonymous": false,
      "inputs": [
        {
          "indexed": true,
          "internalType": "address",
          "name": "_eventOwner",
          "type": "address"
        },
        {
          "indexed": false,
          "internalType": "uint256",
          "name": "_dateCreated",
          "type": "uint256"
        },
        {
          "indexed": false,
          "internalType": "uint256",
          "name": "_amount",
          "type": "uint256"
        }
      ],
      "name": "EventWithdrawalNotification",
      "type": "event"
    },
    {
      "anonymous": false,
      "inputs": [
        {
          "indexed": false,
          "internalType": "uint256",
          "name": "_tokenId",
          "type": "uint256"
        }
      ],
      "name": "MetadataUpdate",
      "type": "event"
    },
    {
      "anonymous": false,
      "inputs": [
        {
          "indexed": true,
          "internalType": "address",
          "name": "previousOwner",
          "type": "address"
        },
        {
          "indexed": true,
          "internalType": "address",
          "name": "newOwner",
          "type": "address"
        }
      ],
      "name": "OwnershipTransferred",
      "type": "event"
    },
    {
      "anonymous": false,
      "inputs": [
        {
          "indexed": true,
          "internalType": "address",
          "name": "_buyer",
          "type": "address"
        },
        {
          "indexed": false,
          "internalType": "uint256",
          "name": "_fee",
          "type": "uint256"
        },
        {
          "indexed": false,
          "internalType": "uint256",
          "name": "_eventId",
          "type": "uint256"
        }
      ],
      "name": "TicketPurchaseNotification",
      "type": "event"
    },
    {
      "anonymous": false,
      "inputs": [
        {
          "indexed": true,
          "internalType": "address",
          "name": "from",
          "type": "address"
        },
        {
          "indexed": true,
          "internalType": "address",
          "name": "to",
          "type": "address"
        },
        {
          "indexed": true,
          "internalType": "uint256",
          "name": "tokenId",
          "type": "uint256"
        }
      ],
      "name": "Transfer",
      "type": "event"
    },
    {
      "inputs": [
        {
          "internalType": "uint256",
          "name": "eventId",
          "type": "uint256"
        }
      ],
      "name": "allowEventOwnersWithdraw",
      "outputs": [
        {
          "internalType": "bool",
          "name": "",
          "type": "bool"
        }
      ],
      "stateMutability": "payable",
      "type": "function"
    },
    {
      "inputs": [
        {
          "internalType": "address",
          "name": "to",
          "type": "address"
        },
        {
          "internalType": "uint256",
          "name": "tokenId",
          "type": "uint256"
        }
      ],
      "name": "approve",
      "outputs": [],
      "stateMutability": "nonpayable",
      "type": "function"
    },
    {
      "inputs": [
        {
          "internalType": "address",
          "name": "owner",
          "type": "address"
        }
      ],
      "name": "balanceOf",
      "outputs": [
        {
          "internalType": "uint256",
          "name": "",
          "type": "uint256"
        }
      ],
      "stateMutability": "view",
      "type": "function"
    },
    {
      "inputs": [
        {
          "internalType": "uint256",
          "name": "eventId",
          "type": "uint256"
        },
        {
          "internalType": "address",
          "name": "addressToConfirm",
          "type": "address"
        }
      ],
      "name": "confirmAddressInEvent",
      "outputs": [
        {
          "internalType": "uint8",
          "name": "",
          "type": "uint8"
        }
      ],
      "stateMutability": "view",
      "type": "function"
    },
    {
      "inputs": [
        {
          "internalType": "uint256",
          "name": "dateOfEvent",
          "type": "uint256"
        },
        {
          "internalType": "uint256",
          "name": "ticketOpenDate",
          "type": "uint256"
        },
        {
          "internalType": "uint256",
          "name": "ticketCloseDate",
          "type": "uint256"
        },
        {
          "internalType": "bool",
          "name": "isOpen",
          "type": "bool"
        },
        {
          "internalType": "uint256",
          "name": "eventPrice",
          "type": "uint256"
        },
        {
          "internalType": "uint256",
          "name": "ticketQuantity",
          "type": "uint256"
        },
        {
          "internalType": "string",
          "name": "eventImageUrl",
          "type": "string"
        },
        {
          "internalType": "string",
          "name": "ipfsUrl",
          "type": "string"
        }
      ],
      "name": "createEvent",
      "outputs": [],
      "stateMutability": "payable",
      "type": "function"
    },
    {
      "inputs": [],
      "name": "eventFee",
      "outputs": [
        {
          "internalType": "uint256",
          "name": "",
          "type": "uint256"
        }
      ],
      "stateMutability": "view",
      "type": "function"
    },
    {
      "inputs": [],
      "name": "eventFundWithdrawalStatus",
      "outputs": [
        {
          "internalType": "bool",
          "name": "",
          "type": "bool"
        }
      ],
      "stateMutability": "view",
      "type": "function"
    },
    {
      "inputs": [
        {
          "internalType": "uint256",
          "name": "",
          "type": "uint256"
        }
      ],
      "name": "eventList",
      "outputs": [
        {
          "internalType": "uint256",
          "name": "eventId",
          "type": "uint256"
        },
        {
          "internalType": "uint256",
          "name": "eventPrice",
          "type": "uint256"
        },
        {
          "internalType": "uint256",
          "name": "ticketOpenDate",
          "type": "uint256"
        },
        {
          "internalType": "uint256",
          "name": "ticketCloseDate",
          "type": "uint256"
        },
        {
          "internalType": "bool",
          "name": "isOpen",
          "type": "bool"
        },
        {
          "internalType": "address",
          "name": "eventOwner",
          "type": "address"
        },
        {
          "internalType": "uint256",
          "name": "dateOfEvent",
          "type": "uint256"
        },
        {
          "internalType": "uint256",
          "name": "ticketQuantity",
          "type": "uint256"
        },
        {
          "internalType": "uint256",
          "name": "ticketsMinted",
          "type": "uint256"
        },
        {
          "internalType": "string",
          "name": "eventImageUrl",
          "type": "string"
        },
        {
          "internalType": "string",
          "name": "ipfsUrl",
          "type": "string"
        },
        {
          "internalType": "uint256",
          "name": "amountSold",
          "type": "uint256"
        }
      ],
      "stateMutability": "view",
      "type": "function"
    },
    {
      "inputs": [],
      "name": "getAllEvents",
      "outputs": [
        {
          "components": [
            {
              "internalType": "uint256",
              "name": "eventId",
              "type": "uint256"
            },
            {
              "internalType": "uint256",
              "name": "eventPrice",
              "type": "uint256"
            },
            {
              "internalType": "uint256",
              "name": "ticketOpenDate",
              "type": "uint256"
            },
            {
              "internalType": "uint256",
              "name": "ticketCloseDate",
              "type": "uint256"
            },
            {
              "internalType": "bool",
              "name": "isOpen",
              "type": "bool"
            },
            {
              "internalType": "address",
              "name": "eventOwner",
              "type": "address"
            },
            {
              "internalType": "uint256",
              "name": "dateOfEvent",
              "type": "uint256"
            },
            {
              "internalType": "uint256",
              "name": "ticketQuantity",
              "type": "uint256"
            },
            {
              "internalType": "uint256",
              "name": "ticketsMinted",
              "type": "uint256"
            },
            {
              "internalType": "string",
              "name": "eventImageUrl",
              "type": "string"
            },
            {
              "internalType": "string",
              "name": "ipfsUrl",
              "type": "string"
            },
            {
              "internalType": "uint256",
              "name": "amountSold",
              "type": "uint256"
            },
            {
              "internalType": "address[]",
              "name": "buyers",
              "type": "address[]"
            }
          ],
          "internalType": "struct NftTicketing.EventStruct[]",
          "name": "",
          "type": "tuple[]"
        }
      ],
      "stateMutability": "view",
      "type": "function"
    },
    {
      "inputs": [
        {
          "internalType": "uint256",
          "name": "tokenId",
          "type": "uint256"
        }
      ],
      "name": "getApproved",
      "outputs": [
        {
          "internalType": "address",
          "name": "",
          "type": "address"
        }
      ],
      "stateMutability": "view",
      "type": "function"
    },
    {
      "inputs": [],
      "name": "getContractBalance",
      "outputs": [
        {
          "internalType": "uint256",
          "name": "",
          "type": "uint256"
        }
      ],
      "stateMutability": "view",
      "type": "function"
    },
    {
      "inputs": [
        {
          "internalType": "address",
          "name": "owner",
          "type": "address"
        },
        {
          "internalType": "address",
          "name": "operator",
          "type": "address"
        }
      ],
      "name": "isApprovedForAll",
      "outputs": [
        {
          "internalType": "bool",
          "name": "",
          "type": "bool"
        }
      ],
      "stateMutability": "view",
      "type": "function"
    },
    {
      "inputs": [],
      "name": "name",
      "outputs": [
        {
          "internalType": "string",
          "name": "",
          "type": "string"
        }
      ],
      "stateMutability": "view",
      "type": "function"
    },
    {
      "inputs": [],
      "name": "owner",
      "outputs": [
        {
          "internalType": "address",
          "name": "",
          "type": "address"
        }
      ],
      "stateMutability": "view",
      "type": "function"
    },
    {
      "inputs": [
        {
          "internalType": "uint256",
          "name": "tokenId",
          "type": "uint256"
        }
      ],
      "name": "ownerOf",
      "outputs": [
        {
          "internalType": "address",
          "name": "",
          "type": "address"
        }
      ],
      "stateMutability": "view",
      "type": "function"
    },
    {
      "inputs": [],
      "name": "renounceOwnership",
      "outputs": [],
      "stateMutability": "nonpayable",
      "type": "function"
    },
    {
      "inputs": [
        {
          "internalType": "uint256",
          "name": "eventId",
          "type": "uint256"
        }
      ],
      "name": "safeMint",
      "outputs": [],
      "stateMutability": "payable",
      "type": "function"
    },
    {
      "inputs": [
        {
          "internalType": "address",
          "name": "from",
          "type": "address"
        },
        {
          "internalType": "address",
          "name": "to",
          "type": "address"
        },
        {
          "internalType": "uint256",
          "name": "tokenId",
          "type": "uint256"
        }
      ],
      "name": "safeTransferFrom",
      "outputs": [],
      "stateMutability": "nonpayable",
      "type": "function"
    },
    {
      "inputs": [
        {
          "internalType": "address",
          "name": "from",
          "type": "address"
        },
        {
          "internalType": "address",
          "name": "to",
          "type": "address"
        },
        {
          "internalType": "uint256",
          "name": "tokenId",
          "type": "uint256"
        },
        {
          "internalType": "bytes",
          "name": "data",
          "type": "bytes"
        }
      ],
      "name": "safeTransferFrom",
      "outputs": [],
      "stateMutability": "nonpayable",
      "type": "function"
    },
    {
      "inputs": [
        {
          "internalType": "address",
          "name": "operator",
          "type": "address"
        },
        {
          "internalType": "bool",
          "name": "approved",
          "type": "bool"
        }
      ],
      "name": "setApprovalForAll",
      "outputs": [],
      "stateMutability": "nonpayable",
      "type": "function"
    },
    {
      "inputs": [
        {
          "internalType": "bytes4",
          "name": "interfaceId",
          "type": "bytes4"
        }
      ],
      "name": "supportsInterface",
      "outputs": [
        {
          "internalType": "bool",
          "name": "",
          "type": "bool"
        }
      ],
      "stateMutability": "view",
      "type": "function"
    },
    {
      "inputs": [],
      "name": "symbol",
      "outputs": [
        {
          "internalType": "string",
          "name": "",
          "type": "string"
        }
      ],
      "stateMutability": "view",
      "type": "function"
    },
    {
      "inputs": [],
      "name": "toggleEventWithdrawalStatus",
      "outputs": [],
      "stateMutability": "nonpayable",
      "type": "function"
    },
    {
      "inputs": [
        {
          "internalType": "uint256",
          "name": "tokenId",
          "type": "uint256"
        }
      ],
      "name": "tokenURI",
      "outputs": [
        {
          "internalType": "string",
          "name": "",
          "type": "string"
        }
      ],
      "stateMutability": "view",
      "type": "function"
    },
    {
      "inputs": [],
      "name": "totalEventsCount",
      "outputs": [
        {
          "internalType": "uint256",
          "name": "_value",
          "type": "uint256"
        }
      ],
      "stateMutability": "view",
      "type": "function"
    },
    {
      "inputs": [
        {
          "internalType": "address",
          "name": "from",
          "type": "address"
        },
        {
          "internalType": "address",
          "name": "to",
          "type": "address"
        },
        {
          "internalType": "uint256",
          "name": "tokenId",
          "type": "uint256"
        }
      ],
      "name": "transferFrom",
      "outputs": [],
      "stateMutability": "nonpayable",
      "type": "function"
    },
    {
      "inputs": [
        {
          "internalType": "address",
          "name": "newOwner",
          "type": "address"
        }
      ],
      "name": "transferOwnership",
      "outputs": [],
      "stateMutability": "nonpayable",
      "type": "function"
    },
    {
      "inputs": [
        {
          "internalType": "uint256",
          "name": "fee",
          "type": "uint256"
        }
      ],
      "name": "updateEventFee",
      "outputs": [],
      "stateMutability": "nonpayable",
      "type": "function"
    }
  ],
  "bytecode": "0x60806040526000600760146101000a81548160ff0219169083151502179055503480156200002c57600080fd5b50604051620053a8380380620053a8833981810160405281019062000052919062000220565b6040518060400160405280600781526020017f4d79546f6b656e000000000000000000000000000000000000000000000000008152506040518060400160405280600381526020017f4d544b00000000000000000000000000000000000000000000000000000000008152508160009081620000cf9190620004c2565b508060019081620000e19190620004c2565b50505062000104620000f86200011260201b60201c565b6200011a60201b60201c565b8060088190555050620005a9565b600033905090565b6000600760009054906101000a900473ffffffffffffffffffffffffffffffffffffffff16905081600760006101000a81548173ffffffffffffffffffffffffffffffffffffffff021916908373ffffffffffffffffffffffffffffffffffffffff1602179055508173ffffffffffffffffffffffffffffffffffffffff168173ffffffffffffffffffffffffffffffffffffffff167f8be0079c531659141344cd1fd0a4f28419497f9722a3daafe3b4186f6b6457e060405160405180910390a35050565b600080fd5b6000819050919050565b620001fa81620001e5565b81146200020657600080fd5b50565b6000815190506200021a81620001ef565b92915050565b600060208284031215620002395762000238620001e0565b5b6000620002498482850162000209565b91505092915050565b600081519050919050565b7f4e487b7100000000000000000000000000000000000000000000000000000000600052604160045260246000fd5b7f4e487b7100000000000000000000000000000000000000000000000000000000600052602260045260246000fd5b60006002820490506001821680620002d457607f821691505b602082108103620002ea57620002e96200028c565b5b50919050565b60008190508160005260206000209050919050565b60006020601f8301049050919050565b600082821b905092915050565b600060088302620003547fffffffffffffffffffffffffffffffffffffffffffffffffffffffffffffffff8262000315565b62000360868362000315565b95508019841693508086168417925050509392505050565b6000819050919050565b6000620003a36200039d6200039784620001e5565b62000378565b620001e5565b9050919050565b6000819050919050565b620003bf8362000382565b620003d7620003ce82620003aa565b84845462000322565b825550505050565b600090565b620003ee620003df565b620003fb818484620003b4565b505050565b5b81811015620004235762000417600082620003e4565b60018101905062000401565b5050565b601f82111562000472576200043c81620002f0565b620004478462000305565b8101602085101562000457578190505b6200046f620004668562000305565b83018262000400565b50505b505050565b600082821c905092915050565b6000620004976000198460080262000477565b1980831691505092915050565b6000620004b2838362000484565b9150826002028217905092915050565b620004cd8262000252565b67ffffffffffffffff811115620004e957620004e86200025d565b5b620004f58254620002bb565b6200050282828562000427565b600060209050601f8311600181146200053a576000841562000525578287015190505b620005318582620004a4565b865550620005a1565b601f1984166200054a86620002f0565b60005b8281101562000574578489015182556001820191506020850194506020810190506200054d565b8683101562000594578489015162000590601f89168262000484565b8355505b6001600288020188555050505b505050505050565b614def80620005b96000396000f3fe6080604052600436106101b75760003560e01c80636f9fb98a116100ec5780639bc10de21161008a578063c27a500d11610064578063c27a500d146105ee578063c87b56dd14610619578063e985e9c514610656578063f2fde38b14610693576101b7565b80639bc10de21461056c578063a22cb4651461059c578063b88d4fde146105c5576101b7565b8063715018a6116100c6578063715018a6146104d45780638da5cb5b146104eb57806395d89b41146105165780639b6bd1e814610541576101b7565b80636f9fb98a1461042f5780636faa1b8e1461045a57806370a0823114610497576101b7565b806331c864e81161015957806356ff019a1161013357806356ff019a1461038057806357e088431461039c5780636352211e146103c75780636da9f3e414610404576101b7565b806331c864e8146102f357806342842e0e1461030f578063493280d214610338576101b7565b8063095ea7b311610195578063095ea7b3146102615780630ddb32aa1461028a57806313f1dafc146102a157806323b872dd146102ca576101b7565b806301ffc9a7146101bc57806306fdde03146101f9578063081812fc14610224575b600080fd5b3480156101c857600080fd5b506101e360048036038101906101de9190612ff2565b6106bc565b6040516101f0919061303a565b60405180910390f35b34801561020557600080fd5b5061020e61071d565b60405161021b91906130e5565b60405180910390f35b34801561023057600080fd5b5061024b6004803603810190610246919061313d565b6107af565b60405161025891906131ab565b60405180910390f35b34801561026d57600080fd5b50610288600480360381019061028391906131f2565b6107f5565b005b34801561029657600080fd5b5061029f61090c565b005b3480156102ad57600080fd5b506102c860048036038101906102c3919061313d565b610940565b005b3480156102d657600080fd5b506102f160048036038101906102ec9190613232565b610952565b005b61030d6004803603810190610308919061313d565b6109b2565b005b34801561031b57600080fd5b5061033660048036038101906103319190613232565b610d2e565b005b34801561034457600080fd5b5061035f600480360381019061035a919061313d565b610d4e565b6040516103779c9b9a99989796959493929190613294565b60405180910390f35b61039a600480360381019061039591906134bd565b610eeb565b005b3480156103a857600080fd5b506103b1611210565b6040516103be91906135ab565b60405180910390f35b3480156103d357600080fd5b506103ee60048036038101906103e9919061313d565b61121c565b6040516103fb91906131ab565b60405180910390f35b34801561041057600080fd5b506104196112a2565b60405161042691906135ab565b60405180910390f35b34801561043b57600080fd5b506104446112a8565b60405161045191906135ab565b60405180910390f35b34801561046657600080fd5b50610481600480360381019061047c91906135c6565b6112b0565b60405161048e9190613622565b60405180910390f35b3480156104a357600080fd5b506104be60048036038101906104b9919061363d565b61137b565b6040516104cb91906135ab565b60405180910390f35b3480156104e057600080fd5b506104e9611432565b005b3480156104f757600080fd5b50610500611446565b60405161050d91906131ab565b60405180910390f35b34801561052257600080fd5b5061052b611470565b60405161053891906130e5565b60405180910390f35b34801561054d57600080fd5b50610556611502565b604051610563919061303a565b60405180910390f35b6105866004803603810190610581919061313d565b611515565b604051610593919061303a565b60405180910390f35b3480156105a857600080fd5b506105c360048036038101906105be919061366a565b61175e565b005b3480156105d157600080fd5b506105ec60048036038101906105e7919061374b565b611774565b005b3480156105fa57600080fd5b506106036117d6565b6040516106109190613add565b60405180910390f35b34801561062557600080fd5b50610640600480360381019061063b919061313d565b611b12565b60405161064d91906130e5565b60405180910390f35b34801561066257600080fd5b5061067d60048036038101906106789190613aff565b611c24565b60405161068a919061303a565b60405180910390f35b34801561069f57600080fd5b506106ba60048036038101906106b5919061363d565b611cb8565b005b6000634906490660e01b7bffffffffffffffffffffffffffffffffffffffffffffffffffffffff1916827bffffffffffffffffffffffffffffffffffffffffffffffffffffffff19161480610716575061071582611d3b565b5b9050919050565b60606000805461072c90613b6e565b80601f016020809104026020016040519081016040528092919081815260200182805461075890613b6e565b80156107a55780601f1061077a576101008083540402835291602001916107a5565b820191906000526020600020905b81548152906001019060200180831161078857829003601f168201915b5050505050905090565b60006107ba82611e1d565b6004600083815260200190815260200160002060009054906101000a900473ffffffffffffffffffffffffffffffffffffffff169050919050565b60006108008261121c565b90508073ffffffffffffffffffffffffffffffffffffffff168373ffffffffffffffffffffffffffffffffffffffff1603610870576040517f08c379a000000000000000000000000000000000000000000000000000000000815260040161086790613c11565b60405180910390fd5b8073ffffffffffffffffffffffffffffffffffffffff1661088f611e68565b73ffffffffffffffffffffffffffffffffffffffff1614806108be57506108bd816108b8611e68565b611c24565b5b6108fd576040517f08c379a00000000000000000000000000000000000000000000000000000000081526004016108f490613ca3565b60405180910390fd5b6109078383611e70565b505050565b610914611f29565b600760149054906101000a900460ff1615600760146101000a81548160ff021916908315150217905550565b610948611f29565b8060088190555050565b61096361095d611e68565b82611fa7565b6109a2576040517f08c379a000000000000000000000000000000000000000000000000000000000815260040161099990613d35565b60405180910390fd5b6109ad83838361203c565b505050565b600080600a60008481526020019081526020016000209050600115158160040160009054906101000a900460ff16151514610a22576040517f08c379a0000000000000000000000000000000000000000000000000000000008152600401610a1990613dc7565b60405180910390fd5b34816001015414610a68576040517f08c379a0000000000000000000000000000000000000000000000000000000008152600401610a5f90613e33565b60405180910390fd5b8060060154816007015410610ab2576040517f08c379a0000000000000000000000000000000000000000000000000000000008152600401610aa990613e9f565b60405180910390fd5b60005b81600b0180549050811015610b53573373ffffffffffffffffffffffffffffffffffffffff1682600b018281548110610af157610af0613ebf565b5b9060005260206000200160009054906101000a900473ffffffffffffffffffffffffffffffffffffffff1673ffffffffffffffffffffffffffffffffffffffff1603610b46578280610b4290613f1d565b9350505b8080600101915050610ab5565b5060028210610b97576040517f08c379a0000000000000000000000000000000000000000000000000000000008152600401610b8e90613fd7565b60405180910390fd5b610ba5338260070154612335565b610c3f8160070154826009018054610bbc90613b6e565b80601f0160208091040260200160405190810160405280929190818152602001828054610be890613b6e565b8015610c355780601f10610c0a57610100808354040283529160200191610c35565b820191906000526020600020905b815481529060010190602001808311610c1857829003601f168201915b5050505050612353565b60018160070154610c509190613ff7565b81600701819055503481600a0154610c689190613ff7565b81600a018190555080600b01339080600181540180825580915050600190039060005260206000200160009091909190916101000a81548173ffffffffffffffffffffffffffffffffffffffff021916908373ffffffffffffffffffffffffffffffffffffffff1602179055503373ffffffffffffffffffffffffffffffffffffffff167f31c246712b3fa02d100c0482445a0aec90c0ffabb67ebeae2979a14aed7c7f73826001015485604051610d2192919061402b565b60405180910390a2505050565b610d4983838360405180602001604052806000815250611774565b505050565b600a6020528060005260406000206000915090508060000154908060010154908060020154908060030154908060040160009054906101000a900460ff16908060040160019054906101000a900473ffffffffffffffffffffffffffffffffffffffff1690806005015490806006015490806007015490806008018054610dd490613b6e565b80601f0160208091040260200160405190810160405280929190818152602001828054610e0090613b6e565b8015610e4d5780601f10610e2257610100808354040283529160200191610e4d565b820191906000526020600020905b815481529060010190602001808311610e3057829003601f168201915b505050505090806009018054610e6290613b6e565b80601f0160208091040260200160405190810160405280929190818152602001828054610e8e90613b6e565b8015610edb5780601f10610eb057610100808354040283529160200191610edb565b820191906000526020600020905b815481529060010190602001808311610ebe57829003601f168201915b50505050509080600a015490508c565b600854341015610f30576040517f08c379a0000000000000000000000000000000000000000000000000000000008152600401610f27906140a0565b60405180910390fd5b6000825111610f74576040517f08c379a0000000000000000000000000000000000000000000000000000000008152600401610f6b9061410c565b60405180910390fd5b6000815111610fb8576040517f08c379a0000000000000000000000000000000000000000000000000000000008152600401610faf90614178565b60405180910390fd5b610fc0612e5f565b610fca60096123f7565b816000018181525050338160a0019073ffffffffffffffffffffffffffffffffffffffff16908173ffffffffffffffffffffffffffffffffffffffff1681525050888160c001818152505086816060018181525050878160400181815250508581608001901515908115158152505084816020018181525050838160e0018181525050600081610100018181525050828161012001819052508181610140018190525060008161016001818152505080600a600061108860096123f7565b81526020019081526020016000206000820151816000015560208201518160010155604082015181600201556060820151816003015560808201518160040160006101000a81548160ff02191690831515021790555060a08201518160040160016101000a81548173ffffffffffffffffffffffffffffffffffffffff021916908373ffffffffffffffffffffffffffffffffffffffff16021790555060c0820151816005015560e08201518160060155610100820151816007015561012082015181600801908161115a9190614344565b506101408201518160090190816111719190614344565b5061016082015181600a015561018082015181600b01908051906020019061119a929190612edf565b509050503373ffffffffffffffffffffffffffffffffffffffff167f9c034d87ac92d982b2ab204e20c1687e53f43863663d28d6aa37d81d299d08436111e060096123f7565b426008546040516111f393929190614416565b60405180910390a26112056009612405565b505050505050505050565b60098060000154905081565b6000806112288361241b565b9050600073ffffffffffffffffffffffffffffffffffffffff168173ffffffffffffffffffffffffffffffffffffffff1603611299576040517f08c379a000000000000000000000000000000000000000000000000000000000815260040161129090614499565b60405180910390fd5b80915050919050565b60085481565b600047905090565b600080600090506000600a6000868152602001908152602001600020905060005b81600b018054905081101561136f578473ffffffffffffffffffffffffffffffffffffffff1682600b01828154811061130d5761130c613ebf565b5b9060005260206000200160009054906101000a900473ffffffffffffffffffffffffffffffffffffffff1673ffffffffffffffffffffffffffffffffffffffff160361136257828061135e906144b9565b9350505b80806001019150506112d1565b50819250505092915050565b60008073ffffffffffffffffffffffffffffffffffffffff168273ffffffffffffffffffffffffffffffffffffffff16036113eb576040517f08c379a00000000000000000000000000000000000000000000000000000000081526004016113e290614554565b60405180910390fd5b600360008373ffffffffffffffffffffffffffffffffffffffff1673ffffffffffffffffffffffffffffffffffffffff168152602001908152602001600020549050919050565b61143a611f29565b6114446000612458565b565b6000600760009054906101000a900473ffffffffffffffffffffffffffffffffffffffff16905090565b60606001805461147f90613b6e565b80601f01602080910402602001604051908101604052809291908181526020018280546114ab90613b6e565b80156114f85780601f106114cd576101008083540402835291602001916114f8565b820191906000526020600020905b8154815290600101906020018083116114db57829003601f168201915b5050505050905090565b600760149054906101000a900460ff1681565b600060011515600760149054906101000a900460ff1615151461156d576040517f08c379a0000000000000000000000000000000000000000000000000000000008152600401611564906145e6565b60405180910390fd5b6000600a600084815260200190815260200160002090506000606482600a0154605a6115999190614606565b6115a39190614677565b90503373ffffffffffffffffffffffffffffffffffffffff168260040160019054906101000a900473ffffffffffffffffffffffffffffffffffffffff1673ffffffffffffffffffffffffffffffffffffffff1614611637576040517f08c379a000000000000000000000000000000000000000000000000000000000815260040161162e906146f4565b60405180910390fd5b60085482600a01541015611680576040517f08c379a000000000000000000000000000000000000000000000000000000000815260040161167790614786565b60405180910390fd5b60003373ffffffffffffffffffffffffffffffffffffffff16826040516116a6906147d7565b60006040518083038185875af1925050503d80600081146116e3576040519150601f19603f3d011682016040523d82523d6000602084013e6116e8565b606091505b50509050600115158115150361175357600083600a01819055503373ffffffffffffffffffffffffffffffffffffffff167faf5dddcc62eee0ebf6856511e3e93e61d7a0410fb4cee4cf8e670b0ba3fcd341428460405161174a92919061402b565b60405180910390a25b809350505050919050565b611770611769611e68565b838361251e565b5050565b61178561177f611e68565b83611fa7565b6117c4576040517f08c379a00000000000000000000000000000000000000000000000000000000081526004016117bb90613d35565b60405180910390fd5b6117d08484848461268a565b50505050565b606060006117e460096123f7565b67ffffffffffffffff8111156117fd576117fc613392565b5b60405190808252806020026020018201604052801561183657816020015b611823612e5f565b81526020019060019003908161181b5790505b50905060005b61184660096123f7565b811015611b0a57600a6000828152602001908152602001600020604051806101a0016040529081600082015481526020016001820154815260200160028201548152602001600382015481526020016004820160009054906101000a900460ff161515151581526020016004820160019054906101000a900473ffffffffffffffffffffffffffffffffffffffff1673ffffffffffffffffffffffffffffffffffffffff1673ffffffffffffffffffffffffffffffffffffffff16815260200160058201548152602001600682015481526020016007820154815260200160088201805461193390613b6e565b80601f016020809104026020016040519081016040528092919081815260200182805461195f90613b6e565b80156119ac5780601f10611981576101008083540402835291602001916119ac565b820191906000526020600020905b81548152906001019060200180831161198f57829003601f168201915b505050505081526020016009820180546119c590613b6e565b80601f01602080910402602001604051908101604052809291908181526020018280546119f190613b6e565b8015611a3e5780601f10611a1357610100808354040283529160200191611a3e565b820191906000526020600020905b815481529060010190602001808311611a2157829003601f168201915b50505050508152602001600a8201548152602001600b8201805480602002602001604051908101604052809291908181526020018280548015611ad657602002820191906000526020600020905b8160009054906101000a900473ffffffffffffffffffffffffffffffffffffffff1673ffffffffffffffffffffffffffffffffffffffff1681526020019060010190808311611a8c575b505050505081525050828281518110611af257611af1613ebf565b5b6020026020010181905250808060010191505061183c565b508091505090565b6060611b1d82611e1d565b6000600660008481526020019081526020016000208054611b3d90613b6e565b80601f0160208091040260200160405190810160405280929190818152602001828054611b6990613b6e565b8015611bb65780601f10611b8b57610100808354040283529160200191611bb6565b820191906000526020600020905b815481529060010190602001808311611b9957829003601f168201915b505050505090506000611bc76126e6565b90506000815103611bdc578192505050611c1f565b600082511115611c11578082604051602001611bf9929190614828565b60405160208183030381529060405292505050611c1f565b611c1a846126fd565b925050505b919050565b6000600560008473ffffffffffffffffffffffffffffffffffffffff1673ffffffffffffffffffffffffffffffffffffffff16815260200190815260200160002060008373ffffffffffffffffffffffffffffffffffffffff1673ffffffffffffffffffffffffffffffffffffffff16815260200190815260200160002060009054906101000a900460ff16905092915050565b611cc0611f29565b600073ffffffffffffffffffffffffffffffffffffffff168173ffffffffffffffffffffffffffffffffffffffff1603611d2f576040517f08c379a0000000000000000000000000000000000000000000000000000000008152600401611d26906148be565b60405180910390fd5b611d3881612458565b50565b60007f80ac58cd000000000000000000000000000000000000000000000000000000007bffffffffffffffffffffffffffffffffffffffffffffffffffffffff1916827bffffffffffffffffffffffffffffffffffffffffffffffffffffffff19161480611e0657507f5b5e139f000000000000000000000000000000000000000000000000000000007bffffffffffffffffffffffffffffffffffffffffffffffffffffffff1916827bffffffffffffffffffffffffffffffffffffffffffffffffffffffff1916145b80611e165750611e1582612765565b5b9050919050565b611e26816127cf565b611e65576040517f08c379a0000000000000000000000000000000000000000000000000000000008152600401611e5c90614499565b60405180910390fd5b50565b600033905090565b816004600083815260200190815260200160002060006101000a81548173ffffffffffffffffffffffffffffffffffffffff021916908373ffffffffffffffffffffffffffffffffffffffff160217905550808273ffffffffffffffffffffffffffffffffffffffff16611ee38361121c565b73ffffffffffffffffffffffffffffffffffffffff167f8c5be1e5ebec7d5bd14f71427d1e84f3dd0314c0f7b2291e5b200ac8c7c3b92560405160405180910390a45050565b611f31611e68565b73ffffffffffffffffffffffffffffffffffffffff16611f4f611446565b73ffffffffffffffffffffffffffffffffffffffff1614611fa5576040517f08c379a0000000000000000000000000000000000000000000000000000000008152600401611f9c9061492a565b60405180910390fd5b565b600080611fb38361121c565b90508073ffffffffffffffffffffffffffffffffffffffff168473ffffffffffffffffffffffffffffffffffffffff161480611ff55750611ff48185611c24565b5b8061203357508373ffffffffffffffffffffffffffffffffffffffff1661201b846107af565b73ffffffffffffffffffffffffffffffffffffffff16145b91505092915050565b8273ffffffffffffffffffffffffffffffffffffffff1661205c8261121c565b73ffffffffffffffffffffffffffffffffffffffff16146120b2576040517f08c379a00000000000000000000000000000000000000000000000000000000081526004016120a9906149bc565b60405180910390fd5b600073ffffffffffffffffffffffffffffffffffffffff168273ffffffffffffffffffffffffffffffffffffffff1603612121576040517f08c379a000000000000000000000000000000000000000000000000000000000815260040161211890614a4e565b60405180910390fd5b61212e8383836001612810565b8273ffffffffffffffffffffffffffffffffffffffff1661214e8261121c565b73ffffffffffffffffffffffffffffffffffffffff16146121a4576040517f08c379a000000000000000000000000000000000000000000000000000000000815260040161219b906149bc565b60405180910390fd5b6004600082815260200190815260200160002060006101000a81549073ffffffffffffffffffffffffffffffffffffffff02191690556001600360008573ffffffffffffffffffffffffffffffffffffffff1673ffffffffffffffffffffffffffffffffffffffff168152602001908152602001600020600082825403925050819055506001600360008473ffffffffffffffffffffffffffffffffffffffff1673ffffffffffffffffffffffffffffffffffffffff16815260200190815260200160002060008282540192505081905550816002600083815260200190815260200160002060006101000a81548173ffffffffffffffffffffffffffffffffffffffff021916908373ffffffffffffffffffffffffffffffffffffffff160217905550808273ffffffffffffffffffffffffffffffffffffffff168473ffffffffffffffffffffffffffffffffffffffff167fddf252ad1be2c89b69c2b068fc378daa952ba7f163c4a11628f55a4df523b3ef60405160405180910390a46123308383836001612816565b505050565b61234f82826040518060200160405280600081525061281c565b5050565b61235c826127cf565b61239b576040517f08c379a000000000000000000000000000000000000000000000000000000000815260040161239290614ae0565b60405180910390fd5b806006600084815260200190815260200160002090816123bb9190614344565b507ff8e1a15aba9398e019f0b49df1a4fde98ee17ae345cb5f6b5e2c27f5033e8ce7826040516123eb91906135ab565b60405180910390a15050565b600081600001549050919050565b6001816000016000828254019250508190555050565b60006002600083815260200190815260200160002060009054906101000a900473ffffffffffffffffffffffffffffffffffffffff169050919050565b6000600760009054906101000a900473ffffffffffffffffffffffffffffffffffffffff16905081600760006101000a81548173ffffffffffffffffffffffffffffffffffffffff021916908373ffffffffffffffffffffffffffffffffffffffff1602179055508173ffffffffffffffffffffffffffffffffffffffff168173ffffffffffffffffffffffffffffffffffffffff167f8be0079c531659141344cd1fd0a4f28419497f9722a3daafe3b4186f6b6457e060405160405180910390a35050565b8173ffffffffffffffffffffffffffffffffffffffff168373ffffffffffffffffffffffffffffffffffffffff160361258c576040517f08c379a000000000000000000000000000000000000000000000000000000000815260040161258390614b4c565b60405180910390fd5b80600560008573ffffffffffffffffffffffffffffffffffffffff1673ffffffffffffffffffffffffffffffffffffffff16815260200190815260200160002060008473ffffffffffffffffffffffffffffffffffffffff1673ffffffffffffffffffffffffffffffffffffffff16815260200190815260200160002060006101000a81548160ff0219169083151502179055508173ffffffffffffffffffffffffffffffffffffffff168373ffffffffffffffffffffffffffffffffffffffff167f17307eab39ab6107e8899845ad3d59bd9653f200f220920489ca2b5937696c318360405161267d919061303a565b60405180910390a3505050565b61269584848461203c565b6126a184848484612877565b6126e0576040517f08c379a00000000000000000000000000000000000000000000000000000000081526004016126d790614bde565b60405180910390fd5b50505050565b606060405180602001604052806000815250905090565b606061270882611e1d565b60006127126126e6565b90506000815111612732576040518060200160405280600081525061275d565b8061273c846129fe565b60405160200161274d929190614828565b6040516020818303038152906040525b915050919050565b60007f01ffc9a7000000000000000000000000000000000000000000000000000000007bffffffffffffffffffffffffffffffffffffffffffffffffffffffff1916827bffffffffffffffffffffffffffffffffffffffffffffffffffffffff1916149050919050565b60008073ffffffffffffffffffffffffffffffffffffffff166127f18361241b565b73ffffffffffffffffffffffffffffffffffffffff1614159050919050565b50505050565b50505050565b6128268383612acc565b6128336000848484612877565b612872576040517f08c379a000000000000000000000000000000000000000000000000000000000815260040161286990614bde565b60405180910390fd5b505050565b60006128988473ffffffffffffffffffffffffffffffffffffffff16612ce9565b156129f1578373ffffffffffffffffffffffffffffffffffffffff1663150b7a026128c1611e68565b8786866040518563ffffffff1660e01b81526004016128e39493929190614c53565b6020604051808303816000875af192505050801561291f57506040513d601f19601f8201168201806040525081019061291c9190614cb4565b60015b6129a1573d806000811461294f576040519150601f19603f3d011682016040523d82523d6000602084013e612954565b606091505b506000815103612999576040517f08c379a000000000000000000000000000000000000000000000000000000000815260040161299090614bde565b60405180910390fd5b805181602001fd5b63150b7a0260e01b7bffffffffffffffffffffffffffffffffffffffffffffffffffffffff1916817bffffffffffffffffffffffffffffffffffffffffffffffffffffffff1916149150506129f6565b600190505b949350505050565b606060006001612a0d84612d0c565b01905060008167ffffffffffffffff811115612a2c57612a2b613392565b5b6040519080825280601f01601f191660200182016040528015612a5e5781602001600182028036833780820191505090505b509050600082602001820190505b600115612ac1578080600190039150507f3031323334353637383961626364656600000000000000000000000000000000600a86061a8153600a8581612ab557612ab4614648565b5b04945060008503612a6c575b819350505050919050565b600073ffffffffffffffffffffffffffffffffffffffff168273ffffffffffffffffffffffffffffffffffffffff1603612b3b576040517f08c379a0000000000000000000000000000000000000000000000000000000008152600401612b3290614d2d565b60405180910390fd5b612b44816127cf565b15612b84576040517f08c379a0000000000000000000000000000000000000000000000000000000008152600401612b7b90614d99565b60405180910390fd5b612b92600083836001612810565b612b9b816127cf565b15612bdb576040517f08c379a0000000000000000000000000000000000000000000000000000000008152600401612bd290614d99565b60405180910390fd5b6001600360008473ffffffffffffffffffffffffffffffffffffffff1673ffffffffffffffffffffffffffffffffffffffff16815260200190815260200160002060008282540192505081905550816002600083815260200190815260200160002060006101000a81548173ffffffffffffffffffffffffffffffffffffffff021916908373ffffffffffffffffffffffffffffffffffffffff160217905550808273ffffffffffffffffffffffffffffffffffffffff16600073ffffffffffffffffffffffffffffffffffffffff167fddf252ad1be2c89b69c2b068fc378daa952ba7f163c4a11628f55a4df523b3ef60405160405180910390a4612ce5600083836001612816565b5050565b6000808273ffffffffffffffffffffffffffffffffffffffff163b119050919050565b600080600090507a184f03e93ff9f4daa797ed6e38ed64bf6a1f0100000000000000008310612d6a577a184f03e93ff9f4daa797ed6e38ed64bf6a1f0100000000000000008381612d6057612d5f614648565b5b0492506040810190505b6d04ee2d6d415b85acef81000000008310612da7576d04ee2d6d415b85acef81000000008381612d9d57612d9c614648565b5b0492506020810190505b662386f26fc100008310612dd657662386f26fc100008381612dcc57612dcb614648565b5b0492506010810190505b6305f5e1008310612dff576305f5e1008381612df557612df4614648565b5b0492506008810190505b6127108310612e24576127108381612e1a57612e19614648565b5b0492506004810190505b60648310612e475760648381612e3d57612e3c614648565b5b0492506002810190505b600a8310612e56576001810190505b80915050919050565b604051806101a0016040528060008152602001600081526020016000815260200160008152602001600015158152602001600073ffffffffffffffffffffffffffffffffffffffff168152602001600081526020016000815260200160008152602001606081526020016060815260200160008152602001606081525090565b828054828255906000526020600020908101928215612f58579160200282015b82811115612f575782518260006101000a81548173ffffffffffffffffffffffffffffffffffffffff021916908373ffffffffffffffffffffffffffffffffffffffff16021790555091602001919060010190612eff565b5b509050612f659190612f69565b5090565b5b80821115612f82576000816000905550600101612f6a565b5090565b6000604051905090565b600080fd5b600080fd5b60007fffffffff0000000000000000000000000000000000000000000000000000000082169050919050565b612fcf81612f9a565b8114612fda57600080fd5b50565b600081359050612fec81612fc6565b92915050565b60006020828403121561300857613007612f90565b5b600061301684828501612fdd565b91505092915050565b60008115159050919050565b6130348161301f565b82525050565b600060208201905061304f600083018461302b565b92915050565b600081519050919050565b600082825260208201905092915050565b60005b8381101561308f578082015181840152602081019050613074565b60008484015250505050565b6000601f19601f8301169050919050565b60006130b782613055565b6130c18185613060565b93506130d1818560208601613071565b6130da8161309b565b840191505092915050565b600060208201905081810360008301526130ff81846130ac565b905092915050565b6000819050919050565b61311a81613107565b811461312557600080fd5b50565b60008135905061313781613111565b92915050565b60006020828403121561315357613152612f90565b5b600061316184828501613128565b91505092915050565b600073ffffffffffffffffffffffffffffffffffffffff82169050919050565b60006131958261316a565b9050919050565b6131a58161318a565b82525050565b60006020820190506131c0600083018461319c565b92915050565b6131cf8161318a565b81146131da57600080fd5b50565b6000813590506131ec816131c6565b92915050565b6000806040838503121561320957613208612f90565b5b6000613217858286016131dd565b925050602061322885828601613128565b9150509250929050565b60008060006060848603121561324b5761324a612f90565b5b6000613259868287016131dd565b935050602061326a868287016131dd565b925050604061327b86828701613128565b9150509250925092565b61328e81613107565b82525050565b6000610180820190506132aa600083018f613285565b6132b7602083018e613285565b6132c4604083018d613285565b6132d1606083018c613285565b6132de608083018b61302b565b6132eb60a083018a61319c565b6132f860c0830189613285565b61330560e0830188613285565b613313610100830187613285565b81810361012083015261332681866130ac565b905081810361014083015261333b81856130ac565b905061334b610160830184613285565b9d9c50505050505050505050505050565b6133658161301f565b811461337057600080fd5b50565b6000813590506133828161335c565b92915050565b600080fd5b600080fd5b7f4e487b7100000000000000000000000000000000000000000000000000000000600052604160045260246000fd5b6133ca8261309b565b810181811067ffffffffffffffff821117156133e9576133e8613392565b5b80604052505050565b60006133fc612f86565b905061340882826133c1565b919050565b600067ffffffffffffffff82111561342857613427613392565b5b6134318261309b565b9050602081019050919050565b82818337600083830152505050565b600061346061345b8461340d565b6133f2565b90508281526020810184848401111561347c5761347b61338d565b5b61348784828561343e565b509392505050565b600082601f8301126134a4576134a3613388565b5b81356134b484826020860161344d565b91505092915050565b600080600080600080600080610100898b0312156134de576134dd612f90565b5b60006134ec8b828c01613128565b98505060206134fd8b828c01613128565b975050604061350e8b828c01613128565b965050606061351f8b828c01613373565b95505060806135308b828c01613128565b94505060a06135418b828c01613128565b93505060c089013567ffffffffffffffff81111561356257613561612f95565b5b61356e8b828c0161348f565b92505060e089013567ffffffffffffffff81111561358f5761358e612f95565b5b61359b8b828c0161348f565b9150509295985092959890939650565b60006020820190506135c06000830184613285565b92915050565b600080604083850312156135dd576135dc612f90565b5b60006135eb85828601613128565b92505060206135fc858286016131dd565b9150509250929050565b600060ff82169050919050565b61361c81613606565b82525050565b60006020820190506136376000830184613613565b92915050565b60006020828403121561365357613652612f90565b5b6000613661848285016131dd565b91505092915050565b6000806040838503121561368157613680612f90565b5b600061368f858286016131dd565b92505060206136a085828601613373565b9150509250929050565b600067ffffffffffffffff8211156136c5576136c4613392565b5b6136ce8261309b565b9050602081019050919050565b60006136ee6136e9846136aa565b6133f2565b90508281526020810184848401111561370a5761370961338d565b5b61371584828561343e565b509392505050565b600082601f83011261373257613731613388565b5b81356137428482602086016136db565b91505092915050565b6000806000806080858703121561376557613764612f90565b5b6000613773878288016131dd565b9450506020613784878288016131dd565b935050604061379587828801613128565b925050606085013567ffffffffffffffff8111156137b6576137b5612f95565b5b6137c28782880161371d565b91505092959194509250565b600081519050919050565b600082825260208201905092915050565b6000819050602082019050919050565b61380381613107565b82525050565b6138128161301f565b82525050565b6138218161318a565b82525050565b600082825260208201905092915050565b600061384382613055565b61384d8185613827565b935061385d818560208601613071565b6138668161309b565b840191505092915050565b600081519050919050565b600082825260208201905092915050565b6000819050602082019050919050565b60006138a98383613818565b60208301905092915050565b6000602082019050919050565b60006138cd82613871565b6138d7818561387c565b93506138e28361388d565b8060005b838110156139135781516138fa888261389d565b9750613905836138b5565b9250506001810190506138e6565b5085935050505092915050565b60006101a08301600083015161393960008601826137fa565b50602083015161394c60208601826137fa565b50604083015161395f60408601826137fa565b50606083015161397260608601826137fa565b5060808301516139856080860182613809565b5060a083015161399860a0860182613818565b5060c08301516139ab60c08601826137fa565b5060e08301516139be60e08601826137fa565b506101008301516139d36101008601826137fa565b506101208301518482036101208601526139ed8282613838565b915050610140830151848203610140860152613a098282613838565b915050610160830151613a206101608601826137fa565b50610180830151848203610180860152613a3a82826138c2565b9150508091505092915050565b6000613a538383613920565b905092915050565b6000602082019050919050565b6000613a73826137ce565b613a7d81856137d9565b935083602082028501613a8f856137ea565b8060005b85811015613acb5784840389528151613aac8582613a47565b9450613ab783613a5b565b925060208a01995050600181019050613a93565b50829750879550505050505092915050565b60006020820190508181036000830152613af78184613a68565b905092915050565b60008060408385031215613b1657613b15612f90565b5b6000613b24858286016131dd565b9250506020613b35858286016131dd565b9150509250929050565b7f4e487b7100000000000000000000000000000000000000000000000000000000600052602260045260246000fd5b60006002820490506001821680613b8657607f821691505b602082108103613b9957613b98613b3f565b5b50919050565b7f4552433732313a20617070726f76616c20746f2063757272656e74206f776e6560008201527f7200000000000000000000000000000000000000000000000000000000000000602082015250565b6000613bfb602183613060565b9150613c0682613b9f565b604082019050919050565b60006020820190508181036000830152613c2a81613bee565b9050919050565b7f4552433732313a20617070726f76652063616c6c6572206973206e6f7420746f60008201527f6b656e206f776e6572206f7220617070726f76656420666f7220616c6c000000602082015250565b6000613c8d603d83613060565b9150613c9882613c31565b604082019050919050565b60006020820190508181036000830152613cbc81613c80565b9050919050565b7f4552433732313a2063616c6c6572206973206e6f7420746f6b656e206f776e6560008201527f72206f7220617070726f76656400000000000000000000000000000000000000602082015250565b6000613d1f602d83613060565b9150613d2a82613cc3565b604082019050919050565b60006020820190508181036000830152613d4e81613d12565b9050919050565b7f4576656e74207469636b65742073616c6520697320636c6f736564206174207460008201527f6865206d6f6d656e740000000000000000000000000000000000000000000000602082015250565b6000613db1602983613060565b9150613dbc82613d55565b604082019050919050565b60006020820190508181036000830152613de081613da4565b9050919050565b7f416d6f756e74206d75737420657175616c207469636b65742070726963650000600082015250565b6000613e1d601e83613060565b9150613e2882613de7565b602082019050919050565b60006020820190508181036000830152613e4c81613e10565b9050919050565b7f5469636b6574206d617820726561636865640000000000000000000000000000600082015250565b6000613e89601283613060565b9150613e9482613e53565b602082019050919050565b60006020820190508181036000830152613eb881613e7c565b9050919050565b7f4e487b7100000000000000000000000000000000000000000000000000000000600052603260045260246000fd5b7f4e487b7100000000000000000000000000000000000000000000000000000000600052601160045260246000fd5b6000613f2882613107565b91507fffffffffffffffffffffffffffffffffffffffffffffffffffffffffffffffff8203613f5a57613f59613eee565b5b600182019050919050565b7f596f752068617665207265616368656420796f7572206d6178207469636b657460008201527f20707572636861736520666f722074686973206576656e740000000000000000602082015250565b6000613fc1603883613060565b9150613fcc82613f65565b604082019050919050565b60006020820190508181036000830152613ff081613fb4565b9050919050565b600061400282613107565b915061400d83613107565b925082820190508082111561402557614024613eee565b5b92915050565b60006040820190506140406000830185613285565b61404d6020830184613285565b9392505050565b7f496e73756666696369656e742066756e64000000000000000000000000000000600082015250565b600061408a601183613060565b915061409582614054565b602082019050919050565b600060208201905081810360008301526140b98161407d565b9050919050565b7f4576656e742075726c2063616e6e6f7420626520656d70747900000000000000600082015250565b60006140f6601983613060565b9150614101826140c0565b602082019050919050565b60006020820190508181036000830152614125816140e9565b9050919050565b7f697066732075726c2063616e6e6f7420626520656d7074790000000000000000600082015250565b6000614162601883613060565b915061416d8261412c565b602082019050919050565b6000602082019050818103600083015261419181614155565b9050919050565b60008190508160005260206000209050919050565b60006020601f8301049050919050565b600082821b905092915050565b6000600883026141fa7fffffffffffffffffffffffffffffffffffffffffffffffffffffffffffffffff826141bd565b61420486836141bd565b95508019841693508086168417925050509392505050565b6000819050919050565b600061424161423c61423784613107565b61421c565b613107565b9050919050565b6000819050919050565b61425b83614226565b61426f61426782614248565b8484546141ca565b825550505050565b600090565b614284614277565b61428f818484614252565b505050565b5b818110156142b3576142a860008261427c565b600181019050614295565b5050565b601f8211156142f8576142c981614198565b6142d2846141ad565b810160208510156142e1578190505b6142f56142ed856141ad565b830182614294565b50505b505050565b600082821c905092915050565b600061431b600019846008026142fd565b1980831691505092915050565b6000614334838361430a565b9150826002028217905092915050565b61434d82613055565b67ffffffffffffffff81111561436657614365613392565b5b6143708254613b6e565b61437b8282856142b7565b600060209050601f8311600181146143ae576000841561439c578287015190505b6143a68582614328565b86555061440e565b601f1984166143bc86614198565b60005b828110156143e4578489015182556001820191506020850194506020810190506143bf565b8683101561440157848901516143fd601f89168261430a565b8355505b6001600288020188555050505b505050505050565b600060608201905061442b6000830186613285565b6144386020830185613285565b6144456040830184613285565b949350505050565b7f4552433732313a20696e76616c696420746f6b656e2049440000000000000000600082015250565b6000614483601883613060565b915061448e8261444d565b602082019050919050565b600060208201905081810360008301526144b281614476565b9050919050565b60006144c482613606565b915060ff82036144d7576144d6613eee565b5b600182019050919050565b7f4552433732313a2061646472657373207a65726f206973206e6f74206120766160008201527f6c6964206f776e65720000000000000000000000000000000000000000000000602082015250565b600061453e602983613060565b9150614549826144e2565b604082019050919050565b6000602082019050818103600083015261456d81614531565b9050919050565b7f5769746864726177616c20697320636c6f73656420617420746865206d6f6d6560008201527f6e74000000000000000000000000000000000000000000000000000000000000602082015250565b60006145d0602283613060565b91506145db82614574565b604082019050919050565b600060208201905081810360008301526145ff816145c3565b9050919050565b600061461182613107565b915061461c83613107565b925082820261462a81613107565b9150828204841483151761464157614640613eee565b5b5092915050565b7f4e487b7100000000000000000000000000000000000000000000000000000000600052601260045260246000fd5b600061468282613107565b915061468d83613107565b92508261469d5761469c614648565b5b828204905092915050565b7f596f7520646f6e2774206f776e2074686973206576656e740000000000000000600082015250565b60006146de601883613060565b91506146e9826146a8565b602082019050919050565b6000602082019050818103600083015261470d816146d1565b9050919050565b7f416d6f756e74206d7573742062652067726561746572207468616e20302e303160008201527f2045746865720000000000000000000000000000000000000000000000000000602082015250565b6000614770602683613060565b915061477b82614714565b604082019050919050565b6000602082019050818103600083015261479f81614763565b9050919050565b600081905092915050565b50565b60006147c16000836147a6565b91506147cc826147b1565b600082019050919050565b60006147e2826147b4565b9150819050919050565b600081905092915050565b600061480282613055565b61480c81856147ec565b935061481c818560208601613071565b80840191505092915050565b600061483482856147f7565b915061484082846147f7565b91508190509392505050565b7f4f776e61626c653a206e6577206f776e657220697320746865207a65726f206160008201527f6464726573730000000000000000000000000000000000000000000000000000602082015250565b60006148a8602683613060565b91506148b38261484c565b604082019050919050565b600060208201905081810360008301526148d78161489b565b9050919050565b7f4f776e61626c653a2063616c6c6572206973206e6f7420746865206f776e6572600082015250565b6000614914602083613060565b915061491f826148de565b602082019050919050565b6000602082019050818103600083015261494381614907565b9050919050565b7f4552433732313a207472616e736665722066726f6d20696e636f72726563742060008201527f6f776e6572000000000000000000000000000000000000000000000000000000602082015250565b60006149a6602583613060565b91506149b18261494a565b604082019050919050565b600060208201905081810360008301526149d581614999565b9050919050565b7f4552433732313a207472616e7366657220746f20746865207a65726f2061646460008201527f7265737300000000000000000000000000000000000000000000000000000000602082015250565b6000614a38602483613060565b9150614a43826149dc565b604082019050919050565b60006020820190508181036000830152614a6781614a2b565b9050919050565b7f45524337323155524953746f726167653a2055524920736574206f66206e6f6e60008201527f6578697374656e7420746f6b656e000000000000000000000000000000000000602082015250565b6000614aca602e83613060565b9150614ad582614a6e565b604082019050919050565b60006020820190508181036000830152614af981614abd565b9050919050565b7f4552433732313a20617070726f766520746f2063616c6c657200000000000000600082015250565b6000614b36601983613060565b9150614b4182614b00565b602082019050919050565b60006020820190508181036000830152614b6581614b29565b9050919050565b7f4552433732313a207472616e7366657220746f206e6f6e20455243373231526560008201527f63656976657220696d706c656d656e7465720000000000000000000000000000602082015250565b6000614bc8603283613060565b9150614bd382614b6c565b604082019050919050565b60006020820190508181036000830152614bf781614bbb565b9050919050565b600081519050919050565b600082825260208201905092915050565b6000614c2582614bfe565b614c2f8185614c09565b9350614c3f818560208601613071565b614c488161309b565b840191505092915050565b6000608082019050614c68600083018761319c565b614c75602083018661319c565b614c826040830185613285565b8181036060830152614c948184614c1a565b905095945050505050565b600081519050614cae81612fc6565b92915050565b600060208284031215614cca57614cc9612f90565b5b6000614cd884828501614c9f565b91505092915050565b7f4552433732313a206d696e7420746f20746865207a65726f2061646472657373600082015250565b6000614d17602083613060565b9150614d2282614ce1565b602082019050919050565b60006020820190508181036000830152614d4681614d0a565b9050919050565b7f4552433732313a20746f6b656e20616c7265616479206d696e74656400000000600082015250565b6000614d83601c83613060565b9150614d8e82614d4d565b602082019050919050565b60006020820190508181036000830152614db281614d76565b905091905056fea264697066735822122095ed22826fcd93fe2de5a4d7dd611b6645be04c7564c3e9712b86cd7b836bd0964736f6c63430008180033",
  "linkReferences": {},
  "deployedLinkReferences": {}
}